:020000040800F2
:1000000030070020650100088B0100088D01000801
:1000100000000000000000000000000000000000E0
:100020000000000000000000000000008F01000838
:10003000000000000000000091010008930100088A
:100040009501000895010008950100089501000838
:100050009501000895010008950100089501000828
:100060009501000895010008950100089501000818
:10007000950100089501000895010008F10A0008A3
:100080009501000800000000000000009501000834
:100090000000000095010008CD0A00089501000845
:1000A0000000000095010008950100089501000876
:1000B0009501000800000000950100089501000866
:1000C00000F002F800F03EF80CA030C80838241800
:1000D0002D18A246671EAB4654465D46AC4201D180
:1000E00000F030F87E460F3E0FCCB6460126334274
:1000F00000D0FB1AA246AB4633431847481B00000A
:10010000681B0000103A02D378C878C1FAD85207A9
:1001100001D330C830C101D504680C6070470000BD
:100120000023002400250026103A01D378C1FBD813
:10013000520700D330C100D50B6070471FB51FBDFB
:1001400010B510BD00F03DFB1146FFF7F7FF01F0C1
:100150001DF800F055FB03B4FFF7F2FF03BC00F0FD
:100160005BFB00000F4880F308880F480168090E08
:100170000E4A914205D10E480E4901600E480F49C2
:1001800001600F4880470F480047FEE7FEE7FEE7A3
:10019000FEE7FEE7FEE700000B480C490C4A0D4B5A
:1001A0007047000030070020040000001F0000001E
:1001B0001810024001000000000001400000000093
:1001C000590A0008C1000008300100203007002053
:1001D00030030020300300204343514330B55C1806
:1001E000010C130C0D4692B25D4380B251432C19A1
:1001F000054655430A0C09044D1962415843010C48
:1002000000044019514130BD70B500252C46AD1A8F
:100210009C4112DA00252C462D1A8C4102DA00F09E
:100220004FFA70BD002440428C41214600F048FA4C
:10023000002440428C41214619E000252C462D1A0D
:100240008C410ADA002452429C41234600F038FADD
:10025000002440428C41214670BD002452429C4102
:100260004042234600248C41214600F029FA002414
:1002700052429C41234670BD002203098B422CD37D
:10028000030A8B4211D300239C464EE003460B43E6
:100290003CD4002243088B4231D303098B421CD348
:1002A000030A8B4201D394463FE0C3098B4201D33A
:1002B000CB01C01A524183098B4201D38B01C01A72
:1002C000524143098B4201D34B01C01A52410309E9
:1002D0008B4201D30B01C01A5241C3088B4201D398
:1002E000CB00C01A524183088B4201D38B00C01A45
:1002F000524143088B4201D34B00C01A5241411A6C
:1003000000D201465241104670475DE0CA0F00D04E
:100310004942031000D34042534000229C46030947
:100320008B422DD3030A8B4212D3FC22890112BACD
:10033000030A8B420CD3890192118B4208D38901A5
:1003400092118B4204D389013AD0921100E08909BD
:10035000C3098B4201D3CB01C01A524183098B429E
:1003600001D38B01C01A524143098B4201D34B0187
:10037000C01A524103098B4201D30B01C01A5241EA
:10038000C3088B4201D3CB00C01A524183088B4271
:1003900001D38B00C01A5241D9D243088B4201D3FA
:1003A0004B00C01A5241411A00D2014663465241E5
:1003B0005B10104601D34042002B00D549427047E4
:1003C00063465B1000D3404201B50020C046C046E2
:1003D00002BD7047704770470346CA02400D10B512
:1003E00010430A1504D00124E4072043002A05DB4A
:1003F0000A4CA21A04D4D040FF2A00DD002010BD10
:100400004A00002B01D0012000E00020101801223A
:100410005205D042F2D8C817C04310BD1E040000D8
:100420001F22030C02D10F22000402D0030E03D0BE
:1004300004E00020014670470002083A030F01D192
:100440000001121F830F01D18000921E002801DBE2
:100450004000521E120551184205C01241181046A4
:100460007047C10FC90700D04042012292071143D3
:10047000D6E701218907D3E7F0B58B4C0F09254654
:1004800089B0BD437BD01D092646AE43FAD00E4647
:100490005E402740F60F3E43254071D024012142A3
:1004A000FBD0FF24AD19A4042D1B039501252D05B8
:1004B000DB02DB0AC9022B43C90A29431E010901D9
:1004C000040F130F050121431701880B8203914389
:1004D0002D098C46A90B1E438A039543B30B9A033F
:1004E00096433F09BA0B9403A74302962E467E43D8
:1004F0000497B6464E19D7190C46019654430597F2
:100500007E43371B7646BF1B3601B646BE0B3619F7
:1005100000967646BC043719009C01D3641C0094F5
:100520006400002F01D001263443029E049F7543CE
:1005300066467E430496760034196E0034190094A2
:10054000029C019E1C196643751BAE4606946546C7
:100550004519059C05956C43594375460891691AE0
:100560000191049E01465143A41B0491611A009C11
:100570000791E10605D061090122114302E072E012
:100580006EE06109089D00272C0A2D066918049D5C
:100590007C412A0A2D066918019D6241AC0DAD020D
:1005A0006D185441079A910D920255196141029AB2
:1005B000644658435443069B059A5A43121A131B28
:1005C0009A0E9B015B187A41010B0005C31851413B
:1005D000220A200644195A419A4200D2491C01209D
:1005E0004002814203D315230226F64302E014237E
:1005F0000326F6432020C51AA9401746AF40DA402B
:100600000A4320460399D840091473181905511854
:10061000039A3843D2075140AC4009D0012294409C
:1006200006D30022401C5141002C01D1400840005B
:100630001E4A934212D3012203989206904207DB8E
:100640000520400709181A480143C012414004E040
:10065000032040070818C10FC907002009B0F0BDEA
:100660000020F107FAE705180C464C4111486D428D
:10067000A04115D394181A465A410E48644290413D
:100680000ED301204A004005824209D35A0082421B
:1006900006D35940C90F084AC90700201143DDE7B6
:1006A00000200649DAE700000000FF07FE0700000F
:1006B000FFFFFF7F0000E0FF0000F07F0000F87FF9
:1006C000FEB5054610460C46184373D0AE468C4620
:1006D0000020AD1A01469C4167D3664600270124DD
:1006E0003D46B61A9D4102D313463A46212465463B
:1006F00076462F04360C3E432D0CB61A9D4104D38A
:10070000150C1B042B4312041034654676462F0645
:10071000360A3E432D0AB61A9D4104D3150E1B021C
:100720002B4312020834654676462F0736093E43AE
:100730002D09B61A9D4104D3150F1B012B4312013D
:10074000241D65467646AF07B6083E43AD08B61A87
:100750009D4104D3950F9B002B439200A41C65463A
:100760007646EF0776083E436D08B61A9D411AD3C8
:1007700092185B41641C16E00018764665464941B4
:10078000B71A9D410191009009D36046B11A984172
:100790008E468446009801990025401C6941DD077A
:1007A00052082A435B08641EE6D57246634603B0CE
:1007B000F0BDFFE700200146C046C0462A4623465A
:1007C000F5E7754600F024F8AE4605006946534645
:1007D000C008C000854618B020B5FFF7DDFC60BC3E
:1007E00000274908B6460026C0C5C0C5C0C5C0C55B
:1007F000C0C5C0C5C0C5C0C5403D49008D46704795
:1008000010B50446C046C0462046FFF7A4FC10BD04
:1008100000487047CC00002001491820ABBEFEE71D
:1008200026000200704700B50346802000F044F81F
:10083000184600F041F800BD00BF0D488069012155
:10084000C90308400028F8D1094840680949084010
:10085000074948600846406807490843044948601A
:1008600000BF03488069402108400028F9D1704743
:10087000005400400078FFFF7820FF0000BF0D48C3
:100880008069C007C00F0028F9D00A4840680121DC
:10089000890308430749486000BF06488069202152
:1008A00008400028F9D00348C06908430149C861DD
:1008B000704700000054004000BF08498969C9071B
:1008C000C90F0029F9D00549886200BF0349896929
:1008D000402211400029F9D1704700000054004027
:1008E00070B506460C46FFF7A7FF4020FFF7E4FF70
:1008F00000231DE03046203881004018C0180F4901
:100900000D5C002C04D0E943C8B2FFF7D5FF02E02C
:100910002846FFF7D1FF042B08D1002C03D0FF207D
:10092000FFF7CAFF02E00020FFF7C6FF581CC3B262
:10093000052BDFDBFFF7A2FF70BD0000E217000808
:1009400030B5002417E0FFF777FF2020FFF76BFF9B
:100950000020FFF768FF4020FFF7AEFF002504E00E
:100960000020FFF7A9FF681CC5B2802DF8DBFFF758
:1009700085FF601CC4B2082CE5DB30BD30B50446F1
:100980000D46FFF759FF0F2C06DD211110221143F0
:100990000846FFF748FF02E01020FFF744FF20075A
:1009A000000FFFF740FFB02129430846FFF73BFF48
:1009B000FFF764FF30BD000010B5FFF73DFFAE202C
:1009C000FFF731FF002405E00549085DFFF72BFF25
:1009D000601CC4B2122CF7D9FFF750FF10BD000005
:1009E000D0170008FEB505460E460124002700BFBB
:1009F0000A2D0EDB0A212846FFF748FCCFB2384605
:100A00003030694608550A212846FFF73FFC054665
:100A100004E028463030694608550025601CC4B201
:100A2000002DE5D1601EC4B200BF6946085D3146A5
:100A3000FFF756FF601EC4B2002CF6D1FEBD30B5E4
:100A400004460D4604E020782946FFF749FF641C60
:100A500020780028F7D130BD1948006801210843EB
:100A6000174908600846406816490840144948601C
:100A700008460068144908401149086008460068A3
:100A80000121890488430E490860084640683F21D7
:100A9000090488430A4948600846C06A0009000101
:100AA000C8620846006BFF21D431884304490863BB
:100AB0000846406B4008400048630020886070474B
:100AC000001002400CB8FF08FFFFF6FE00B5074813
:100AD0000069C007C00F002807D000F00DF80348D8
:100AE0000069400840000149086100BD004801401C
:100AF000012080070069704710480088002804D052
:100B00000E480088401E0D4908800D4800880028C6
:100B10000ED1FF20F5300A4908800A4840690121BA
:100B200048400849486108480088401C0649088038
:100B300003480088401E02490880704704000020D6
:100B400006000020000400480800002010B500281E
:100B500019DB1A4A03231B02D21883089B00D258C0
:100B60008307DC0EFF23A3409A438B071B0E8407E9
:100B7000E40EA3401A43114B032424021B198408DA
:100B8000A4001A5118E00E4A03071B0F083B9B08EC
:100B90009B00D2588307DC0EFF23A3409A438B07A8
:100BA0001B0E8407E40EA3401A43054B0407240FD1
:100BB000083CA408A4001A5110BD000000E100E0A8
:100BC0001CED00E030B50546F42000F05DFC044665
:100BD000A408A400012004432146F42000F09CFD59
:100BE00030BDF8B505460C46D02000F04DFC2C2158
:100BF00048552C20405D582805D02C20405D6028A9
:100C000001D00020F8BDB621E02000F085FD00BF36
:100C1000F32000F039FCC007C00F0028F8D12846A7
:100C200000F0D0FC284600F046FD60794001617874
:100C300089000843C6B23146F52000F06DFD2078EA
:100C4000012801D100202070E0784001A1788900BE
:100C5000084321780843C7B22C20405D602806D1A4
:100C600020790090F220009900F056FD00BF39462F
:100C7000F42000F051FD0120C4E7032101700021A0
:100C8000417003218170C17001714171704730B5AD
:100C90000546F32000F0F8FB044608202040002819
:100CA00001D0012030BD0020FCE70000FFB58BB073
:100CB00004461D462C20005D602802D000202860DC
:100CC0000025002D01D0082000E00620069007A98D
:100CD000F720069A00F032FB6946087F0003497F3F
:100CE000090108436946897F09110843099068464C
:100CF000C07F010308A800780001084308A94978CB
:100D0000091106460E4300BFF11022885200891ACD
:100D10000222A25E5143C81231112288891A494326
:100D200009130422A25E51438B13C718B900791826
:100D300080310912059105990C9801603A462046C8
:100D4000099900F067F80190FFF793FB0E4A0F4BEB
:100D500003910290FFF790FB05910490FFF73CFB95
:100D60000D990860002D0CD008A988780002C97878
:100D7000084305903A462046059900F00CF8286093
:100D800000BF0FB0F0BD0000BC14E90FFDB87E3FFE
:100D9000002101707047F0B503460C464B208002DD
:100DA000111AA003DD8B2D05451B2020185E48433A
:100DB000281A0125AD034019C0132226F5564D43CC
:100DC000AD121E7F4E43F6120127FF03F61975433D
:100DD000AD12BE01AD191A269E5F7543BE10AD1946
:100DE000AD1368430146C8134043C0111D7E6843DC
:100DF0000011091A002901DA002000E00846014626
:100E000019200006814200DD00E008460146081373
:100E1000F0BD0000F7B5B2B03498C1177D239B0236
:100E20000022C41A91410D4621942095204629465E
:100E300022462B461E951F94FFF7CEF91022329BB7
:100E40009A5ED3171A931B921C911D90FFF7C4F959
:100E5000059104900E203299085EC11722462B4658
:100E60001695179418911990FFF7B6F9C30B4A0419
:100E70001A43430404990598591842410592049174
:100E80000C203299085EC20005990498001C4A4162
:100E900005920490159414952046294622462B4627
:100EA00012951394FFF798F90A22329B9A5ED31792
:100EB0000E930F9210911190FFF78EF90A06060A11
:100EC00016430F1208203299085EC11722462B469E
:100ED0000A950B940C910D90FFF77EF90246030DD5
:100EE000080318431103741847413D462846012161
:100EF000C903231C48413299C988002209930692EC
:100F0000079108901846069B079A0899FFF764F91D
:100F10004C10CD1700210A46204648402946514032
:100F2000084301D135B0F0BD012109053398081AF5
:100F3000C21703920290029A53080399C8071843F4
:100F4000D307059E049A991AB041304B00222F9383
:100F50002E923191309008461A462E9B3099FFF719
:100F60003BF922462B4601910090FFF74DF9039182
:100F7000029016213298415ECB170398C604029A5C
:100F8000520B324340132AAD0DC52D910846194628
:100F90002A9BFFF721F9039AD604029B5B0B33438C
:100FA000521327932692289129901A46269BFFF7E1
:100FB00013F9CA01400E10434D160446142232980C
:100FC000825ED3170299039822AE0BC62592104673
:100FD0001946229B239AFFF7FFF84A03C00C1043DF
:100FE000C91405910490029903980B196841049A59
:100FF00005999A1848410106100A08431221329AAD
:10100000515E09014018029002988BE7350C0000F0
:101010000349088000BF024909880029FBD17047B5
:101020000400002010B5524880690121890408435A
:101030004F4988614F48504988620120C86208467C
:101040000068912108434C4908600846C0680121A6
:1010500008434949C8601620002809DB00BF00BFCB
:10106000C206D20E01219140444A116000BF00BF68
:1010700000BF05211620FFF769FD3D4840690121A9
:10108000890408433A4948613D4800680121084302
:101090003B490860364840690903084334494861C0
:1010A000384800680A2108433649086008468068C5
:1010B0000F210843334988600846406803210843EC
:1010C000304948600846006A112108432D490862EA
:1010D0002748C0690121490508432549C8612A48B4
:1010E0000069294908610846006909210843264921
:1010F0000861084600690321090208432249086182
:10110000084600690121090408431F49086108468F
:1011100000690321090508431B4908610846406826
:101120000321C90288431849486008460068012124
:101130000843154908600E484069012149040843E5
:101140000B4948610920C0060068042108430921B1
:10115000C9060860084600688008800008600846E4
:10116000C068022108430921C906C86010BD0000FB
:10117000001002403F1F00000048014000E100E075
:10118000000400480014004800540040FFF74AFFE4
:101190006420FFF73DFFFFF70FFCFFF7D1FB0021B5
:1011A0000520FFF7EBFB01214AA0FFF748FC4B4865
:1011B000FFF763FD494908462638FFF712FD474807
:1011C000801F007B582803D1012145A0FFF737FC81
:1011D0004248801F007B602803D1012143A0FFF714
:1011E0002EFC76E044480088002872D00020424956
:1011F00008803A482638FFF7E5FC00BF3748263814
:10120000FFF745FD0028F9D13C4B3D4A3D493348A5
:101210002638FFF74BFD02210120FFF7AFFB00212D
:1012200039A0FFF70CFC642136480068FFF72EF860
:1012300004460021FFF7D6FB002135A0FFF7FFFB96
:10124000642130480068FFF721F80C460021204651
:10125000FFF7C8FB00212FA0FFF7F1FB04210120BD
:10126000FFF78CFB00212CA0FFF7E9FB244909685C
:10127000080A0021FFF7B6FB002129A0FFF7DFFBDA
:101280001F4908780021FFF7ADFB002125A0FFF7DB
:10129000D6FB06210120FFF771FB002123A0FFF7F9
:1012A000CEFB16490968880A0021FFF79BFB002145
:1012B00017A0FFF7C4FB114909888805800D00219C
:1012C000FFF790FB00211BA0FFF7B9FB0348FFF7D6
:1012D0005FFD87E72054455354200000C4000020E0
:1012E0002A20424D50323830202A00002A20424D18
:1012F00045323830202A0000080000201400002069
:10130000100000201800002054656D702E3A200057
:101310002E00000020430000507265732E3A20001A
:101320002C000000206D6D200000000048756D2E1F
:101330003A200000202520200000000030B500BF2A
:101340004C4B9B690124E4032340002BF8D1494B0B
:101350005B68494C2340474C636023465B68474CBD
:101360002343444C636000BF424B9B6940242340AD
:10137000002BF9D100BF3F4B9B69DB07DB0F002B34
:10138000F9D03C4B986200BF3A4B9B694024234004
:10139000002BF9D100BF374B9B69DB07DB0F002B1C
:1013A000F9D0344B5B680124A4032343314C6360C0
:1013B00000BF304B9B6920242340002BF9D02D4BDC
:1013C000DB6923432B4CE36100BF2A4B9B6901245B
:1013D000E4032340002BF8D1264B5B68284C2340C4
:1013E000244C636023465B6824152343214C6360CF
:1013F00023465C681304234D2B431C431D4B5C6048
:1014000000BF1C4B9B6940242340002BF9D10AE00C
:1014100000BF184B9B6904242340002BF9D0154BC7
:101420005B6A0B70491C1346541EE2B2002BEFDCC2
:1014300000BF104B9B69DB07DB0F002BF9D00D4B76
:101440005B680124A40323430A4C636000BF094B7B
:101450009B6920242340002BF9D0064BDB692343F2
:10146000044CE36123465B682124A402A343014C9E
:10147000636030BD0054004000F800FFEC20FF0026
:1014800000FC00FFEC200000014600BF484A9269C2
:101490000123DB031A40002AF8D1454A5268454B24
:1014A0001A40434B5A601A465268434B1A43404B0A
:1014B0005A6000BF3E4A926940231A40002AF9D17F
:1014C00000BF3B4A9269D207D20F002AF9D0384AAE
:1014D000916200BF364A926940231A40002AF9D12E
:1014E00000BF334A9269D207D20F002AF9D0304A9E
:1014F000526801239B031A432D4B5A6000BF2C4AAC
:10150000926920231A40002AF9D0294AD2691A4345
:10151000274BDA6100BF264A92690123DB031A4098
:10152000002AF8D1224A5268244B1A40204B5A60B4
:101530001A4652681B151A431D4B5A601A465268C8
:101540001F4B1A431A4B5A6000BF194A9269402335
:101550001A40002AF9D100BF154A926904231A40A3
:10156000002AF9D0124A526AD0B200BF104A9269DA
:10157000D207D20F002AF9D00D4A526801239B03EB
:101580001A430B4B5A6000BF094A926920231A4044
:10159000002AF9D0064AD2691A43054BDA611A4685
:1015A000526821239B029A43014B5A607047000006
:1015B0000054004000F800FFEC20800000FC00FF19
:1015C000EC20010030B504468920FFF75DFF0502DD
:1015D0008820FFF759FF054325808B20FFF754FF34
:1015E00005028A20FFF750FF054328B260808D2056
:1015F000FFF74AFF05028C20FFF746FF054328B29C
:10160000A0808F20FFF740FF05028E20FFF73CFFF0
:101610000543E5809120FFF737FF05029020FFF793
:1016200033FF054328B220819320FFF72DFF0502E9
:101630009220FFF729FF054328B260819520FFF72C
:1016400023FF05029420FFF71FFF054328B2A08166
:101650009720FFF719FF05029620FFF715FF0543B6
:1016600028B2E0819920FFF70FFF05029820FFF7CD
:101670000BFF054328B220829B20FFF705FF0502E0
:101680009A20FFF701FF054328B260829D20FFF7F3
:10169000FBFE05029C20FFF7F7FE054328B2A0825F
:1016A0009F20FFF7F1FE05029E20FFF7EDFE0543A8
:1016B00028B2E08230BDF8B50446A120FFF7E4FE71
:1016C0002076E220FFF7E0FE0702E120FFF7DCFED4
:1016D000074338B26083E320FFF7D6FE2077E4208B
:1016E000FFF7D2FE0646E520FFF7CEFE0546E620D0
:1016F000FFF7CAFE009030012907090F0843E08375
:1017000000980001291108432084E720FFF7BCFE60
:1017100041B222200155F8BD00BF2A4A9269012337
:10172000DB031A40002AF8D1264A5268264B1A4099
:10173000244B5A601A465268244B1A43214B5A6074
:1017400000BF204A926940231A40002AF9D100BF05
:101750001C4A9269D207D20F002AF9D0194A906226
:1017600000BF184A926940231A40002AF9D100BFED
:10177000144A9269D207D20F002AF9D0114A916215
:1017800000BF104A926940231A40002AF9D100BFD5
:101790000C4A9269D207D20F002AF9D0094A52683E
:1017A00001239B031A43074B5A6000BF054A926905
:1017B00020231A40002AF9D0024AD2691A43014B69
:1017C000DA6170470054004000F800FFEC20800010
:1017D000A83FD30040A1C8DA12817FA4A6D5808D8E
:1017E00014AF000000000000002F000000070007F9
:1017F00000147F147F14242A7F2A12C4C81026469E
:1018000036495522500005030000001C224100000B
:1018100041221C0014083E081408083E0808000075
:1018200050300010101010100060600000201008F0
:1018300004023E5149453E00427F40004261514909
:10184000462141454B311814127F10274545453933
:101850003C4A494930017109050336494949360670
:101860004949291E0036360000005636000008148B
:1018700022410014141414140041221408020151CE
:101880000906324959513E7E1111117E7F4949495D
:10189000363E414141227F4141221C7F4949494115
:1018A0007F090909013E4149497A7F0808087F00FC
:1018B000417F41002040413F017F081422417F4089
:1018C0004040407F020C027F7F0408107F3E414170
:1018D000413E7F090909063E4151215E7F091929D0
:1018E00046464949493101017F01013F4040403F9F
:1018F0001F2040201F3F4038403F631408146307F7
:10190000087008076151494543007F414100552A4D
:10191000552A550041417F00040201020440404025
:101920004040000102040020545454787F4844444D
:10193000383844444420384444487F385454541878
:10194000087E0901020C5252523E7F0804047800BE
:10195000447D40002040443D007F10284400004169
:101960007F40007C041804787C08040478384444E0
:1019700044387C14141408081414187C7C080404DB
:10198000084854545420043F4440203C4040207CAC
:101990001C2040201C3C4030403C44281028440C73
:1019A0005050503C4464544C440008364100000000
:1019B0007F00000041360800040204080400000013
:1019C0000000000000000000000000000000000017
:1019D0000000000000000000000000000000000007
:1019E00000000000000000000000000000000000F7
:1019F00000000000000000000000000000000000E7
:101A000000000000000000000000000000000000D6
:101A100000000000000000000000000000000000C6
:101A200000000000000000000000000000000000B6
:101A300000000000000000000000000000000000A6
:101A40000000000000000000000000000000000096
:101A50000000000000000000000000000000000086
:101A60000000000000000000000000000000000076
:101A70000000000000000000000000000000000066
:101A80000000360000000000000000000000000020
:101A9000000000003E49494922000000000000000B
:101AA0000000000000000000000000000044457C31
:101AB00045440000000000000000000000417F419C
:101AC0000000447D40000000000000000000000015
:101AD0000000000000000000000000000000000006
:101AE00000000000385444280000000000000000FE
:101AF000000000000000000000000000004A487ADA
:101B000040407E1111117E7F494949317F49494941
:101B1000367F01010103603E21217F7F4949494110
:101B200063147F146322494949367F1008047F7F7C
:101B30001009047F7F081422417C0201017F7F028B
:101B40000C027F7F0808087F3E4141413E7F010132
:101B5000017F7F090909063E4141412201017F01C0
:101B600001074848483F1C227F221C631408146365
:101B70003F20203F60070808087F7F407F407F3F6D
:101B8000203F207F017F4848307F4848307F7F4892
:101B9000484830224949493E7F083E413E4629197E
:101BA000097F205454547878545454207C5454540D
:101BB000287C0404040060382438603854545418D5
:101BC0006C107C106C28445454283C4040207C3CD1
:101BD0004042207C7C10102844601008047C7C0863
:101BE00010087C7C1010107C38444444387C040479
:101BF000047C7C14141408384444442004047C04F9
:101C0000040C5050503C18247C24184428102844BC
:101C10003C20203C600C1010107C7C407C407C3CC4
:101C2000203C207C047C4848307C4830007C7C4848
:101C300048483028445454387C10384438582424B8
:101C4000247C0000641C0008000000201C00000030
:101C500004010008801C00081C000020140700007C
:101C6000200100080000000000000000000000004B
:101C70000000000000000000000000000000000064
:040000050800016589
:00000001FF
